{
  "_format": "hh-sol-artifact-1",
  "contractName": "DegenToken",
  "sourceName": "contracts/DegenToken.sol",
  "abi": [
    {
      "inputs": [],
      "stateMutability": "nonpayable",
      "type": "constructor"
    },
    {
      "anonymous": false,
      "inputs": [
        {
          "indexed": true,
          "internalType": "address",
          "name": "owner",
          "type": "address"
        },
        {
          "indexed": true,
          "internalType": "address",
          "name": "spender",
          "type": "address"
        },
        {
          "indexed": false,
          "internalType": "uint256",
          "name": "value",
          "type": "uint256"
        }
      ],
      "name": "Approval",
      "type": "event"
    },
    {
      "anonymous": false,
      "inputs": [
        {
          "indexed": true,
          "internalType": "address",
          "name": "previousOwner",
          "type": "address"
        },
        {
          "indexed": true,
          "internalType": "address",
          "name": "newOwner",
          "type": "address"
        }
      ],
      "name": "OwnershipTransferred",
      "type": "event"
    },
    {
      "anonymous": false,
      "inputs": [
        {
          "indexed": true,
          "internalType": "address",
          "name": "from",
          "type": "address"
        },
        {
          "indexed": true,
          "internalType": "address",
          "name": "to",
          "type": "address"
        },
        {
          "indexed": false,
          "internalType": "uint256",
          "name": "value",
          "type": "uint256"
        }
      ],
      "name": "Transfer",
      "type": "event"
    },
    {
      "inputs": [
        {
          "internalType": "address",
          "name": "owner",
          "type": "address"
        },
        {
          "internalType": "address",
          "name": "spender",
          "type": "address"
        }
      ],
      "name": "allowance",
      "outputs": [
        {
          "internalType": "uint256",
          "name": "",
          "type": "uint256"
        }
      ],
      "stateMutability": "view",
      "type": "function"
    },
    {
      "inputs": [
        {
          "internalType": "address",
          "name": "spender",
          "type": "address"
        },
        {
          "internalType": "uint256",
          "name": "amount",
          "type": "uint256"
        }
      ],
      "name": "approve",
      "outputs": [
        {
          "internalType": "bool",
          "name": "",
          "type": "bool"
        }
      ],
      "stateMutability": "nonpayable",
      "type": "function"
    },
    {
      "inputs": [
        {
          "internalType": "address",
          "name": "account",
          "type": "address"
        }
      ],
      "name": "balanceOf",
      "outputs": [
        {
          "internalType": "uint256",
          "name": "",
          "type": "uint256"
        }
      ],
      "stateMutability": "view",
      "type": "function"
    },
    {
      "inputs": [
        {
          "internalType": "uint256",
          "name": "_value",
          "type": "uint256"
        }
      ],
      "name": "burnTokens",
      "outputs": [],
      "stateMutability": "nonpayable",
      "type": "function"
    },
    {
      "inputs": [],
      "name": "decimals",
      "outputs": [
        {
          "internalType": "uint8",
          "name": "",
          "type": "uint8"
        }
      ],
      "stateMutability": "pure",
      "type": "function"
    },
    {
      "inputs": [
        {
          "internalType": "address",
          "name": "spender",
          "type": "address"
        },
        {
          "internalType": "uint256",
          "name": "subtractedValue",
          "type": "uint256"
        }
      ],
      "name": "decreaseAllowance",
      "outputs": [
        {
          "internalType": "bool",
          "name": "",
          "type": "bool"
        }
      ],
      "stateMutability": "nonpayable",
      "type": "function"
    },
    {
      "inputs": [],
      "name": "getBalance",
      "outputs": [
        {
          "internalType": "uint256",
          "name": "",
          "type": "uint256"
        }
      ],
      "stateMutability": "view",
      "type": "function"
    },
    {
      "inputs": [
        {
          "internalType": "address",
          "name": "spender",
          "type": "address"
        },
        {
          "internalType": "uint256",
          "name": "addedValue",
          "type": "uint256"
        }
      ],
      "name": "increaseAllowance",
      "outputs": [
        {
          "internalType": "bool",
          "name": "",
          "type": "bool"
        }
      ],
      "stateMutability": "nonpayable",
      "type": "function"
    },
    {
      "inputs": [],
      "name": "listStoreItems",
      "outputs": [
        {
          "internalType": "string",
          "name": "",
          "type": "string"
        }
      ],
      "stateMutability": "view",
      "type": "function"
    },
    {
      "inputs": [
        {
          "internalType": "address",
          "name": "to",
          "type": "address"
        },
        {
          "internalType": "uint256",
          "name": "amount",
          "type": "uint256"
        }
      ],
      "name": "mint",
      "outputs": [],
      "stateMutability": "nonpayable",
      "type": "function"
    },
    {
      "inputs": [],
      "name": "name",
      "outputs": [
        {
          "internalType": "string",
          "name": "",
          "type": "string"
        }
      ],
      "stateMutability": "view",
      "type": "function"
    },
    {
      "inputs": [],
      "name": "owner",
      "outputs": [
        {
          "internalType": "address",
          "name": "",
          "type": "address"
        }
      ],
      "stateMutability": "view",
      "type": "function"
    },
    {
      "inputs": [
        {
          "internalType": "uint8",
          "name": "input",
          "type": "uint8"
        }
      ],
      "name": "redeemTokens",
      "outputs": [
        {
          "internalType": "string",
          "name": "",
          "type": "string"
        }
      ],
      "stateMutability": "payable",
      "type": "function"
    },
    {
      "inputs": [],
      "name": "renounceOwnership",
      "outputs": [],
      "stateMutability": "nonpayable",
      "type": "function"
    },
    {
      "inputs": [],
      "name": "symbol",
      "outputs": [
        {
          "internalType": "string",
          "name": "",
          "type": "string"
        }
      ],
      "stateMutability": "view",
      "type": "function"
    },
    {
      "inputs": [],
      "name": "totalSupply",
      "outputs": [
        {
          "internalType": "uint256",
          "name": "",
          "type": "uint256"
        }
      ],
      "stateMutability": "view",
      "type": "function"
    },
    {
      "inputs": [
        {
          "internalType": "address",
          "name": "to",
          "type": "address"
        },
        {
          "internalType": "uint256",
          "name": "amount",
          "type": "uint256"
        }
      ],
      "name": "transfer",
      "outputs": [
        {
          "internalType": "bool",
          "name": "",
          "type": "bool"
        }
      ],
      "stateMutability": "nonpayable",
      "type": "function"
    },
    {
      "inputs": [
        {
          "internalType": "address",
          "name": "from",
          "type": "address"
        },
        {
          "internalType": "address",
          "name": "to",
          "type": "address"
        },
        {
          "internalType": "uint256",
          "name": "amount",
          "type": "uint256"
        }
      ],
      "name": "transferFrom",
      "outputs": [
        {
          "internalType": "bool",
          "name": "",
          "type": "bool"
        }
      ],
      "stateMutability": "nonpayable",
      "type": "function"
    },
    {
      "inputs": [
        {
          "internalType": "address",
          "name": "newOwner",
          "type": "address"
        }
      ],
      "name": "transferOwnership",
      "outputs": [],
      "stateMutability": "nonpayable",
      "type": "function"
    },
    {
      "inputs": [
        {
          "internalType": "address",
          "name": "_receiver",
          "type": "address"
        },
        {
          "internalType": "uint256",
          "name": "_value",
          "type": "uint256"
        }
      ],
      "name": "transferTokens",
      "outputs": [],
      "stateMutability": "nonpayable",
      "type": "function"
    }
  ],
  "bytecode": "0x608060405234801561001057600080fd5b506040518060400160405280600581526020017f446567656e0000000000000000000000000000000000000000000000000000008152506040518060400160405280600381526020017f44474e0000000000000000000000000000000000000000000000000000000000815250816003908161008c91906107a3565b50806004908161009c91906107a3565b5050506100bb6100b061048560201b60201c565b61048d60201b60201c565b60066040518060600160405280606481526020016040518060400160405280600a81526020017f4578747261204c69666500000000000000000000000000000000000000000000815250815260200160001515815250908060018154018082558091505060019003906000526020600020906003020160009091909190915060008201518160000155602082015181600101908161015991906107a3565b5060408201518160020160006101000a81548160ff021916908315150217905550505060066040518060600160405280603281526020016040518060400160405280600681526020017f536869656c640000000000000000000000000000000000000000000000000000815250815260200160001515815250908060018154018082558091505060019003906000526020600020906003020160009091909190915060008201518160000155602082015181600101908161021a91906107a3565b5060408201518160020160006101000a81548160ff02191690831515021790555050506006604051806060016040528060c881526020016040518060400160405280600d81526020017f446f75626c652044616d6167650000000000000000000000000000000000000081525081526020016000151581525090806001815401808255809150506001900390600052602060002090600302016000909190919091506000820151816000015560208201518160010190816102db91906107a3565b5060408201518160020160006101000a81548160ff021916908315150217905550505060066040518060600160405280606481526020016040518060400160405280600c81526020017f496e7669736962696c6974790000000000000000000000000000000000000000815250815260200160001515815250908060018154018082558091505060019003906000526020600020906003020160009091909190915060008201518160000155602082015181600101908161039c91906107a3565b5060408201518160020160006101000a81548160ff021916908315150217905550505060066040518060600160405280609681526020016040518060400160405280600d81526020017f4865616c746820506f74696f6e00000000000000000000000000000000000000815250815260200160001515815250908060018154018082558091505060019003906000526020600020906003020160009091909190915060008201518160000155602082015181600101908161045d91906107a3565b5060408201518160020160006101000a81548160ff0219169083151502179055505050610875565b600033905090565b6000600560009054906101000a900473ffffffffffffffffffffffffffffffffffffffff16905081600560006101000a81548173ffffffffffffffffffffffffffffffffffffffff021916908373ffffffffffffffffffffffffffffffffffffffff1602179055508173ffffffffffffffffffffffffffffffffffffffff168173ffffffffffffffffffffffffffffffffffffffff167f8be0079c531659141344cd1fd0a4f28419497f9722a3daafe3b4186f6b6457e060405160405180910390a35050565b600081519050919050565b7f4e487b7100000000000000000000000000000000000000000000000000000000600052604160045260246000fd5b7f4e487b7100000000000000000000000000000000000000000000000000000000600052602260045260246000fd5b600060028204905060018216806105d457607f821691505b6020821081036105e7576105e661058d565b5b50919050565b60008190508160005260206000209050919050565b60006020601f8301049050919050565b600082821b905092915050565b60006008830261064f7fffffffffffffffffffffffffffffffffffffffffffffffffffffffffffffffff82610612565b6106598683610612565b95508019841693508086168417925050509392505050565b6000819050919050565b6000819050919050565b60006106a061069b61069684610671565b61067b565b610671565b9050919050565b6000819050919050565b6106ba83610685565b6106ce6106c6826106a7565b84845461061f565b825550505050565b600090565b6106e36106d6565b6106ee8184846106b1565b505050565b5b81811015610712576107076000826106db565b6001810190506106f4565b5050565b601f82111561075757610728816105ed565b61073184610602565b81016020851015610740578190505b61075461074c85610602565b8301826106f3565b50505b505050565b600082821c905092915050565b600061077a6000198460080261075c565b1980831691505092915050565b60006107938383610769565b9150826002028217905092915050565b6107ac82610553565b67ffffffffffffffff8111156107c5576107c461055e565b5b6107cf82546105bc565b6107da828285610716565b600060209050601f83116001811461080d57600084156107fb578287015190505b6108058582610787565b86555061086d565b601f19841661081b866105ed565b60005b828110156108435784890151825560018201915060208501945060208101905061081e565b86831015610860578489015161085c601f891682610769565b8355505b6001600288020188555050505b505050505050565b6127f8806108846000396000f3fe60806040526004361061011f5760003560e01c806370a08231116100a0578063a9059cbb11610064578063a9059cbb146103f0578063bec3fa171461042d578063dd62ed3e14610456578063e7664eeb14610493578063f2fde38b146104be5761011f565b806370a0823114610309578063715018a6146103465780638da5cb5b1461035d57806395d89b4114610388578063a457c2d7146103b35761011f565b8063313ce567116100e7578063313ce5671461021f578063395093511461024a57806340c10f191461028757806350aed53e146102b05780636d1b229d146102e05761011f565b806306fdde0314610124578063095ea7b31461014f57806312065fe01461018c57806318160ddd146101b757806323b872dd146101e2575b600080fd5b34801561013057600080fd5b506101396104e7565b6040516101469190611865565b60405180910390f35b34801561015b57600080fd5b5061017660048036038101906101719190611920565b610579565b604051610183919061197b565b60405180910390f35b34801561019857600080fd5b506101a161059c565b6040516101ae91906119a5565b60405180910390f35b3480156101c357600080fd5b506101cc6105ac565b6040516101d991906119a5565b60405180910390f35b3480156101ee57600080fd5b50610209600480360381019061020491906119c0565b6105b6565b604051610216919061197b565b60405180910390f35b34801561022b57600080fd5b506102346105e5565b6040516102419190611a2f565b60405180910390f35b34801561025657600080fd5b50610271600480360381019061026c9190611920565b6105ea565b60405161027e919061197b565b60405180910390f35b34801561029357600080fd5b506102ae60048036038101906102a99190611920565b610621565b005b6102ca60048036038101906102c59190611a76565b610637565b6040516102d79190611865565b60405180910390f35b3480156102ec57600080fd5b5061030760048036038101906103029190611aa3565b610869565b005b34801561031557600080fd5b50610330600480360381019061032b9190611ad0565b6108c1565b60405161033d91906119a5565b60405180910390f35b34801561035257600080fd5b5061035b610909565b005b34801561036957600080fd5b5061037261091d565b60405161037f9190611b0c565b60405180910390f35b34801561039457600080fd5b5061039d610947565b6040516103aa9190611865565b60405180910390f35b3480156103bf57600080fd5b506103da60048036038101906103d59190611920565b6109d9565b6040516103e7919061197b565b60405180910390f35b3480156103fc57600080fd5b5061041760048036038101906104129190611920565b610a50565b604051610424919061197b565b60405180910390f35b34801561043957600080fd5b50610454600480360381019061044f9190611920565b610a73565b005b34801561046257600080fd5b5061047d60048036038101906104789190611b27565b610ad9565b60405161048a91906119a5565b60405180910390f35b34801561049f57600080fd5b506104a8610b60565b6040516104b59190611865565b60405180910390f35b3480156104ca57600080fd5b506104e560048036038101906104e09190611ad0565b610bed565b005b6060600380546104f690611b96565b80601f016020809104026020016040519081016040528092919081815260200182805461052290611b96565b801561056f5780601f106105445761010080835404028352916020019161056f565b820191906000526020600020905b81548152906001019060200180831161055257829003601f168201915b5050505050905090565b600080610584610c70565b9050610591818585610c78565b600191505092915050565b60006105a7336108c1565b905090565b6000600254905090565b6000806105c1610c70565b90506105ce858285610e41565b6105d9858585610ecd565b60019150509392505050565b600090565b6000806105f5610c70565b90506106168185856106078589610ad9565b6106119190611bf6565b610c78565b600191505092915050565b610629611143565b61063382826111c1565b5050565b60606006805490508260ff1610610683576040517f08c379a000000000000000000000000000000000000000000000000000000000815260040161067a90611c76565b60405180910390fd5b60068260ff168154811061069a57610699611c96565b5b906000526020600020906003020160020160009054906101000a900460ff16156106f9576040517f08c379a00000000000000000000000000000000000000000000000000000000081526004016106f090611d11565b60405180910390fd5b60068260ff16815481106107105761070f611c96565b5b90600052602060002090600302016000015461072b336108c1565b101561076c576040517f08c379a000000000000000000000000000000000000000000000000000000000815260040161076390611d7d565b60405180910390fd5b61079e3360068460ff168154811061078757610786611c96565b5b906000526020600020906003020160000154610579565b506107d9336107ab61091d565b60068560ff16815481106107c2576107c1611c96565b5b9060005260206000209060030201600001546105b6565b50600160068360ff16815481106107f3576107f2611c96565b5b906000526020600020906003020160020160006101000a81548160ff02191690831515021790555060068260ff168154811061083257610831611c96565b5b90600052602060002090600302016001016040516020016108539190611efe565b6040516020818303038152906040529050919050565b80610873336108c1565b10156108b4576040517f08c379a00000000000000000000000000000000000000000000000000000000081526004016108ab90611f77565b60405180910390fd5b6108be3382611317565b50565b60008060008373ffffffffffffffffffffffffffffffffffffffff1673ffffffffffffffffffffffffffffffffffffffff168152602001908152602001600020549050919050565b610911611143565b61091b60006114e4565b565b6000600560009054906101000a900473ffffffffffffffffffffffffffffffffffffffff16905090565b60606004805461095690611b96565b80601f016020809104026020016040519081016040528092919081815260200182805461098290611b96565b80156109cf5780601f106109a4576101008083540402835291602001916109cf565b820191906000526020600020905b8154815290600101906020018083116109b257829003601f168201915b5050505050905090565b6000806109e4610c70565b905060006109f28286610ad9565b905083811015610a37576040517f08c379a0000000000000000000000000000000000000000000000000000000008152600401610a2e90612009565b60405180910390fd5b610a448286868403610c78565b60019250505092915050565b600080610a5b610c70565b9050610a68818585610ecd565b600191505092915050565b80610a7d336108c1565b1015610abe576040517f08c379a0000000000000000000000000000000000000000000000000000000008152600401610ab590611f77565b60405180910390fd5b610ac83382610579565b50610ad43383836105b6565b505050565b6000600160008473ffffffffffffffffffffffffffffffffffffffff1673ffffffffffffffffffffffffffffffffffffffff16815260200190815260200160002060008373ffffffffffffffffffffffffffffffffffffffff1673ffffffffffffffffffffffffffffffffffffffff16815260200190815260200160002054905092915050565b6060600060405180602001604052806000815250905060005b600680549050811015610be55781610b90826115aa565b60068381548110610ba457610ba3611c96565b5b9060005260206000209060030201600101604051602001610bc79392919061213e565b60405160208183030381529060405291508080600101915050610b79565b508091505090565b610bf5611143565b600073ffffffffffffffffffffffffffffffffffffffff168173ffffffffffffffffffffffffffffffffffffffff1603610c64576040517f08c379a0000000000000000000000000000000000000000000000000000000008152600401610c5b90612202565b60405180910390fd5b610c6d816114e4565b50565b600033905090565b600073ffffffffffffffffffffffffffffffffffffffff168373ffffffffffffffffffffffffffffffffffffffff1603610ce7576040517f08c379a0000000000000000000000000000000000000000000000000000000008152600401610cde90612294565b60405180910390fd5b600073ffffffffffffffffffffffffffffffffffffffff168273ffffffffffffffffffffffffffffffffffffffff1603610d56576040517f08c379a0000000000000000000000000000000000000000000000000000000008152600401610d4d90612326565b60405180910390fd5b80600160008573ffffffffffffffffffffffffffffffffffffffff1673ffffffffffffffffffffffffffffffffffffffff16815260200190815260200160002060008473ffffffffffffffffffffffffffffffffffffffff1673ffffffffffffffffffffffffffffffffffffffff168152602001908152602001600020819055508173ffffffffffffffffffffffffffffffffffffffff168373ffffffffffffffffffffffffffffffffffffffff167f8c5be1e5ebec7d5bd14f71427d1e84f3dd0314c0f7b2291e5b200ac8c7c3b92583604051610e3491906119a5565b60405180910390a3505050565b6000610e4d8484610ad9565b90507fffffffffffffffffffffffffffffffffffffffffffffffffffffffffffffffff8114610ec75781811015610eb9576040517f08c379a0000000000000000000000000000000000000000000000000000000008152600401610eb090612392565b60405180910390fd5b610ec68484848403610c78565b5b50505050565b600073ffffffffffffffffffffffffffffffffffffffff168373ffffffffffffffffffffffffffffffffffffffff1603610f3c576040517f08c379a0000000000000000000000000000000000000000000000000000000008152600401610f3390612424565b60405180910390fd5b600073ffffffffffffffffffffffffffffffffffffffff168273ffffffffffffffffffffffffffffffffffffffff1603610fab576040517f08c379a0000000000000000000000000000000000000000000000000000000008152600401610fa2906124b6565b60405180910390fd5b610fb6838383611678565b60008060008573ffffffffffffffffffffffffffffffffffffffff1673ffffffffffffffffffffffffffffffffffffffff1681526020019081526020016000205490508181101561103c576040517f08c379a000000000000000000000000000000000000000000000000000000000815260040161103390612548565b60405180910390fd5b8181036000808673ffffffffffffffffffffffffffffffffffffffff1673ffffffffffffffffffffffffffffffffffffffff16815260200190815260200160002081905550816000808573ffffffffffffffffffffffffffffffffffffffff1673ffffffffffffffffffffffffffffffffffffffff168152602001908152602001600020600082825401925050819055508273ffffffffffffffffffffffffffffffffffffffff168473ffffffffffffffffffffffffffffffffffffffff167fddf252ad1be2c89b69c2b068fc378daa952ba7f163c4a11628f55a4df523b3ef8460405161112a91906119a5565b60405180910390a361113d84848461167d565b50505050565b61114b610c70565b73ffffffffffffffffffffffffffffffffffffffff1661116961091d565b73ffffffffffffffffffffffffffffffffffffffff16146111bf576040517f08c379a00000000000000000000000000000000000000000000000000000000081526004016111b6906125b4565b60405180910390fd5b565b600073ffffffffffffffffffffffffffffffffffffffff168273ffffffffffffffffffffffffffffffffffffffff1603611230576040517f08c379a000000000000000000000000000000000000000000000000000000000815260040161122790612620565b60405180910390fd5b61123c60008383611678565b806002600082825461124e9190611bf6565b92505081905550806000808473ffffffffffffffffffffffffffffffffffffffff1673ffffffffffffffffffffffffffffffffffffffff168152602001908152602001600020600082825401925050819055508173ffffffffffffffffffffffffffffffffffffffff16600073ffffffffffffffffffffffffffffffffffffffff167fddf252ad1be2c89b69c2b068fc378daa952ba7f163c4a11628f55a4df523b3ef836040516112ff91906119a5565b60405180910390a36113136000838361167d565b5050565b600073ffffffffffffffffffffffffffffffffffffffff168273ffffffffffffffffffffffffffffffffffffffff1603611386576040517f08c379a000000000000000000000000000000000000000000000000000000000815260040161137d906126b2565b60405180910390fd5b61139282600083611678565b60008060008473ffffffffffffffffffffffffffffffffffffffff1673ffffffffffffffffffffffffffffffffffffffff16815260200190815260200160002054905081811015611418576040517f08c379a000000000000000000000000000000000000000000000000000000000815260040161140f90612744565b60405180910390fd5b8181036000808573ffffffffffffffffffffffffffffffffffffffff1673ffffffffffffffffffffffffffffffffffffffff1681526020019081526020016000208190555081600260008282540392505081905550600073ffffffffffffffffffffffffffffffffffffffff168373ffffffffffffffffffffffffffffffffffffffff167fddf252ad1be2c89b69c2b068fc378daa952ba7f163c4a11628f55a4df523b3ef846040516114cb91906119a5565b60405180910390a36114df8360008461167d565b505050565b6000600560009054906101000a900473ffffffffffffffffffffffffffffffffffffffff16905081600560006101000a81548173ffffffffffffffffffffffffffffffffffffffff021916908373ffffffffffffffffffffffffffffffffffffffff1602179055508173ffffffffffffffffffffffffffffffffffffffff168173ffffffffffffffffffffffffffffffffffffffff167f8be0079c531659141344cd1fd0a4f28419497f9722a3daafe3b4186f6b6457e060405160405180910390a35050565b6060600060016115b984611682565b01905060008167ffffffffffffffff8111156115d8576115d7612764565b5b6040519080825280601f01601f19166020018201604052801561160a5781602001600182028036833780820191505090505b509050600082602001820190505b60011561166d578080600190039150507f3031323334353637383961626364656600000000000000000000000000000000600a86061a8153600a858161166157611660612793565b5b04945060008503611618575b819350505050919050565b505050565b505050565b600080600090507a184f03e93ff9f4daa797ed6e38ed64bf6a1f01000000000000000083106116e0577a184f03e93ff9f4daa797ed6e38ed64bf6a1f01000000000000000083816116d6576116d5612793565b5b0492506040810190505b6d04ee2d6d415b85acef8100000000831061171d576d04ee2d6d415b85acef8100000000838161171357611712612793565b5b0492506020810190505b662386f26fc10000831061174c57662386f26fc10000838161174257611741612793565b5b0492506010810190505b6305f5e1008310611775576305f5e100838161176b5761176a612793565b5b0492506008810190505b612710831061179a5761271083816117905761178f612793565b5b0492506004810190505b606483106117bd57606483816117b3576117b2612793565b5b0492506002810190505b600a83106117cc576001810190505b80915050919050565b600081519050919050565b600082825260208201905092915050565b60005b8381101561180f5780820151818401526020810190506117f4565b60008484015250505050565b6000601f19601f8301169050919050565b6000611837826117d5565b61184181856117e0565b93506118518185602086016117f1565b61185a8161181b565b840191505092915050565b6000602082019050818103600083015261187f818461182c565b905092915050565b600080fd5b600073ffffffffffffffffffffffffffffffffffffffff82169050919050565b60006118b78261188c565b9050919050565b6118c7816118ac565b81146118d257600080fd5b50565b6000813590506118e4816118be565b92915050565b6000819050919050565b6118fd816118ea565b811461190857600080fd5b50565b60008135905061191a816118f4565b92915050565b6000806040838503121561193757611936611887565b5b6000611945858286016118d5565b92505060206119568582860161190b565b9150509250929050565b60008115159050919050565b61197581611960565b82525050565b6000602082019050611990600083018461196c565b92915050565b61199f816118ea565b82525050565b60006020820190506119ba6000830184611996565b92915050565b6000806000606084860312156119d9576119d8611887565b5b60006119e7868287016118d5565b93505060206119f8868287016118d5565b9250506040611a098682870161190b565b9150509250925092565b600060ff82169050919050565b611a2981611a13565b82525050565b6000602082019050611a446000830184611a20565b92915050565b611a5381611a13565b8114611a5e57600080fd5b50565b600081359050611a7081611a4a565b92915050565b600060208284031215611a8c57611a8b611887565b5b6000611a9a84828501611a61565b91505092915050565b600060208284031215611ab957611ab8611887565b5b6000611ac78482850161190b565b91505092915050565b600060208284031215611ae657611ae5611887565b5b6000611af4848285016118d5565b91505092915050565b611b06816118ac565b82525050565b6000602082019050611b216000830184611afd565b92915050565b60008060408385031215611b3e57611b3d611887565b5b6000611b4c858286016118d5565b9250506020611b5d858286016118d5565b9150509250929050565b7f4e487b7100000000000000000000000000000000000000000000000000000000600052602260045260246000fd5b60006002820490506001821680611bae57607f821691505b602082108103611bc157611bc0611b67565b5b50919050565b7f4e487b7100000000000000000000000000000000000000000000000000000000600052601160045260246000fd5b6000611c01826118ea565b9150611c0c836118ea565b9250828201905080821115611c2457611c23611bc7565b5b92915050565b7f496e76616c6964204974656d2053656c656374696f6e00000000000000000000600082015250565b6000611c606016836117e0565b9150611c6b82611c2a565b602082019050919050565b60006020820190508181036000830152611c8f81611c53565b9050919050565b7f4e487b7100000000000000000000000000000000000000000000000000000000600052603260045260246000fd5b7f4974656d20616c72656164792072656465656d65640000000000000000000000600082015250565b6000611cfb6015836117e0565b9150611d0682611cc5565b602082019050919050565b60006020820190508181036000830152611d2a81611cee565b9050919050565b7f496e73756666696369656e7420446567656e20546f6b656e7300000000000000600082015250565b6000611d676019836117e0565b9150611d7282611d31565b602082019050919050565b60006020820190508181036000830152611d9681611d5a565b9050919050565b600081905092915050565b7f436f6e67726174756c6174696f6e732120596f7520686176652072656465656d60008201527f6564200000000000000000000000000000000000000000000000000000000000602082015250565b6000611e04602383611d9d565b9150611e0f82611da8565b602382019050919050565b60008190508160005260206000209050919050565b60008154611e3c81611b96565b611e468186611d9d565b94506001821660008114611e615760018114611e7657611ea9565b60ff1983168652811515820286019350611ea9565b611e7f85611e1a565b60005b83811015611ea157815481890152600182019150602081019050611e82565b838801955050505b50505092915050565b7f2100000000000000000000000000000000000000000000000000000000000000600082015250565b6000611ee8600183611d9d565b9150611ef382611eb2565b600182019050919050565b6000611f0982611df7565b9150611f158284611e2f565b9150611f2082611edb565b915081905092915050565b7f446567656e20546f6b656e7320496e73756666696369656e7400000000000000600082015250565b6000611f616019836117e0565b9150611f6c82611f2b565b602082019050919050565b60006020820190508181036000830152611f9081611f54565b9050919050565b7f45524332303a2064656372656173656420616c6c6f77616e63652062656c6f7760008201527f207a65726f000000000000000000000000000000000000000000000000000000602082015250565b6000611ff36025836117e0565b9150611ffe82611f97565b604082019050919050565b6000602082019050818103600083015261202281611fe6565b9050919050565b6000612034826117d5565b61203e8185611d9d565b935061204e8185602086016117f1565b80840191505092915050565b7f2020200000000000000000000000000000000000000000000000000000000000600082015250565b6000612090600383611d9d565b915061209b8261205a565b600382019050919050565b7f2e20000000000000000000000000000000000000000000000000000000000000600082015250565b60006120dc600283611d9d565b91506120e7826120a6565b600282019050919050565b7f0a00000000000000000000000000000000000000000000000000000000000000600082015250565b6000612128600183611d9d565b9150612133826120f2565b600182019050919050565b600061214a8286612029565b915061215582612083565b91506121618285612029565b915061216c826120cf565b91506121788284611e2f565b91506121838261211b565b9150819050949350505050565b7f4f776e61626c653a206e6577206f776e657220697320746865207a65726f206160008201527f6464726573730000000000000000000000000000000000000000000000000000602082015250565b60006121ec6026836117e0565b91506121f782612190565b604082019050919050565b6000602082019050818103600083015261221b816121df565b9050919050565b7f45524332303a20617070726f76652066726f6d20746865207a65726f2061646460008201527f7265737300000000000000000000000000000000000000000000000000000000602082015250565b600061227e6024836117e0565b915061228982612222565b604082019050919050565b600060208201905081810360008301526122ad81612271565b9050919050565b7f45524332303a20617070726f766520746f20746865207a65726f20616464726560008201527f7373000000000000000000000000000000000000000000000000000000000000602082015250565b60006123106022836117e0565b915061231b826122b4565b604082019050919050565b6000602082019050818103600083015261233f81612303565b9050919050565b7f45524332303a20696e73756666696369656e7420616c6c6f77616e6365000000600082015250565b600061237c601d836117e0565b915061238782612346565b602082019050919050565b600060208201905081810360008301526123ab8161236f565b9050919050565b7f45524332303a207472616e736665722066726f6d20746865207a65726f20616460008201527f6472657373000000000000000000000000000000000000000000000000000000602082015250565b600061240e6025836117e0565b9150612419826123b2565b604082019050919050565b6000602082019050818103600083015261243d81612401565b9050919050565b7f45524332303a207472616e7366657220746f20746865207a65726f206164647260008201527f6573730000000000000000000000000000000000000000000000000000000000602082015250565b60006124a06023836117e0565b91506124ab82612444565b604082019050919050565b600060208201905081810360008301526124cf81612493565b9050919050565b7f45524332303a207472616e7366657220616d6f756e742065786365656473206260008201527f616c616e63650000000000000000000000000000000000000000000000000000602082015250565b60006125326026836117e0565b915061253d826124d6565b604082019050919050565b6000602082019050818103600083015261256181612525565b9050919050565b7f4f776e61626c653a2063616c6c6572206973206e6f7420746865206f776e6572600082015250565b600061259e6020836117e0565b91506125a982612568565b602082019050919050565b600060208201905081810360008301526125cd81612591565b9050919050565b7f45524332303a206d696e7420746f20746865207a65726f206164647265737300600082015250565b600061260a601f836117e0565b9150612615826125d4565b602082019050919050565b60006020820190508181036000830152612639816125fd565b9050919050565b7f45524332303a206275726e2066726f6d20746865207a65726f2061646472657360008201527f7300000000000000000000000000000000000000000000000000000000000000602082015250565b600061269c6021836117e0565b91506126a782612640565b604082019050919050565b600060208201905081810360008301526126cb8161268f565b9050919050565b7f45524332303a206275726e20616d6f756e7420657863656564732062616c616e60008201527f6365000000000000000000000000000000000000000000000000000000000000602082015250565b600061272e6022836117e0565b9150612739826126d2565b604082019050919050565b6000602082019050818103600083015261275d81612721565b9050919050565b7f4e487b7100000000000000000000000000000000000000000000000000000000600052604160045260246000fd5b7f4e487b7100000000000000000000000000000000000000000000000000000000600052601260045260246000fdfea264697066735822122083299d3d0b477f1fe28a7960aaa1116d4346af648548dc1cb1c32a47630c0b8464736f6c634300081a0033",
  "linkReferences": {},
  "deployedLinkReferences": {}
}